:100000000C9478000C94A0000C94A0000C94A00018
:100010000C94A0000C94A0000C94A0000C94A000E0
:100020000C94A0000C94A0000C94A0000C94A000D0
:100030000C94A0000C94A0000C94A0000C94A000C0
:100040000C9498030C94A0000C948B020C94650201
:100050000C94A0000C94A0000C94A0000C94A000A0
:100060000C945C060C94A000580958097E0980097C
:100070007E0958097E097E095809580980098009B6
:1000800080097E0980097E097E0980097E097E0932
:10009000800900000000240027002A000000000062
:1000A000250028002B000000000023002600290066
:1000B000040404040404040402020202020203030E
:1000C0000303030301020408102040800102040816
:1000D00010200102040810200000000800020100A6
:1000E000000304070000000000000000D912F20B1A
:1000F00011241FBECFEFD8E0DEBFCDBF24E0A4EBBC
:10010000B2E001C01D92A639B207E1F712E0A0E00B
:10011000B1E0E0ECFBE202C005900D92A43BB10718
:10012000D9F710E0C7E7D0E004C02197FE010E9494
:10013000B213C637D107C9F70E94F80B0C94D31538
:100140000C940000FC01538D448D252F30E0842F4A
:1001500090E0821B930B541710F0CF9608950197EF
:100160000895FC01918D828D981761F0828DDF01D9
:10017000A80FB11D5D968C91928D9F5F9F73928F9A
:1001800090E008958FEF9FEF0895FC01918D828D8F
:10019000981731F0828DE80FF11D858D90E008955C
:1001A0008FEF9FEF0895FC01918D228D892F90E0B4
:1001B000805C9F4F821B91098F739927089587E870
:1001C00093E00E94D30021E0892B09F420E0822FE4
:1001D0000895FC01848DDF01A80FB11DA35ABF4F04
:1001E0002C91848D90E001968F739927848FA68936
:1001F000B7892C93A089B1898C9180648C93938D5D
:10020000848D981306C00288F389E02D80818F7D4C
:1002100080830895EF92FF920F931F93CF93DF9304
:10022000EC0181E0888F9B8D8C8D981305C0E88947
:10023000F989808185FD24C0F62E0B8D10E00F5FBB
:100240001F4F0F731127E02E8C8DE8120CC00FB6D4
:1002500007FCFACFE889F989808185FFF5CFCE01C7
:100260000E94E900F1CF8B8DFE01E80FF11DE35AEA
:10027000FF4FF0820B8FEA89FB898081806207C083
:10028000EE89FF896083E889F989808180648083B1
:1002900081E090E0DF91CF911F910F91FF90EF905F
:1002A0000895CF93DF93EC01888D8823C9F0EA8904
:1002B000FB89808185FD05C0A889B9898C9186FD5F
:1002C0000FC00FB607FCF5CF808185FFF2CFA8895C
:1002D000B9898C9185FFEDCFCE010E94E900E7CF6F
:1002E000DF91CF91089580E090E0892B29F00E9462
:1002F000DF0081110C94000008953FB7F8948091BD
:10030000100390911103A0911203B091130326B52D
:10031000A89B05C02F3F19F00196A11DB11D3FBF3D
:10032000BA2FA92F982F8827820F911DA11DB11DCB
:10033000BC01CD0142E0660F771F881F991F4A95C7
:10034000D1F7089585ED8093BC008091BC0084FDB9
:10035000FCCF1092630308954091E602262F30E00F
:10036000240F311D21323105DCF420916303243048
:10037000C9F4FC0180E090E0861758F43091E60261
:100380002191DC01AC53BD4FA30FB11D2C930196FD
:10039000F3CF8091E602680F6093E60280E0089553
:1003A00081E0089582E008950895E0911C03809112
:1003B0001B03E81730F4F0E0E35EFC4F808190E02F
:1003C00008958FEF9FEF089590911C0380911B0378
:1003D000981750F4E92FF0E0E35EFC4F208130E005
:1003E0009F5F90931C0302C02FEF3FEFC901089558
:1003F00080911B0390E020911C03821B91090895BA
:10040000CF92DF92EF92FF920F931F93CF93DF93E0
:100410007C01262F972F8A0180916403882391F015
:10042000C62FD72F6E01C40ED51ECC15DD0571F079
:100430006991D701ED91FC910190F081E02DC70108
:100440000995F3CF642F822F0E94AC01C801DF9180
:10045000CF911F910F91FF90EF90DF90CF90089573
:10046000CF93DF931F92CDB7DEB7698320916403EA
:100470002223D1F020918603203240F021E030E0A9
:10048000FC013383228380E090E015C080916503F6
:10049000E82FF0E0EA59FC4F998190838F5F8093B9
:1004A00065038093860305C061E0CE0101960E943A
:1004B000AC0181E090E00F90DF91CF910895089515
:1004C00080E090E008950E94AF151F920F920FB642
:1004D0000F9211242F933F934F935F936F937F93CA
:1004E0008F939F93AF93BF93EF93FF9387E893E02E
:1004F0000E94E900FF91EF91BF91AF919F918F9181
:100500007F916F915F914F913F912F910F900FBE0F
:100510000F901F9018951F920F920FB60F921124F3
:100520002F938F939F93EF93FF93E0919703F09115
:1005300098038081E0919D03F0919E0382FD12C09B
:1005400090818091A0038F5F8F732091A103821708
:1005500051F0E091A003F0E0E957FC4F958F8093B4
:10056000A00301C08081FF91EF919F918F912F9106
:100570000F900FBE0F901F901895833081F028F4D4
:10058000813099F08230A1F008958730A9F0883049
:10059000B9F08430D1F4809180008F7D03C08091C8
:1005A00080008F7780938000089584B58F7702C094
:1005B00084B58F7D84BD08958091B0008F7703C08E
:1005C0008091B0008F7D8093B00008951F93CF93EA
:1005D000DF93282F30E0F901E852FF4F8491F901B1
:1005E000EC53FF4FD491F901E055FF4FC491CC2358
:1005F000C9F0162F81110E94BD02EC2FF0E0EE0F22
:10060000FF1FE456FF4FA591B4918FB7F8941111D5
:1006100005C09C91ED2FE095E92302C0EC91ED2BF4
:10062000EC938FBFDF91CF911F910895CF93DF930C
:1006300090E0FC01EC53FF4F2491FC01E055FF4F8B
:100640008491882361F190E0880F991FFC01EE5698
:10065000FF4FC591D491FC01E456FF4FA591B49191
:10066000611109C09FB7F8948881209582238883FF
:10067000EC912E230BC0623061F49FB7F89438815F
:10068000822F809583238883EC912E2B2C939FBF00
:1006900006C08FB7F894E8812E2B28838FBFDF9197
:1006A000CF9108958F929F92AF92BF92CF92DF9297
:1006B000EF92FF926B017C010E947D014B015C0176
:1006C000C114D104E104F104F1F00E947D01DC01C8
:1006D000CB0188199909AA09BB09883E9340A10555
:1006E000B10570F321E0C21AD108E108F10888EEE3
:1006F000880E83E0981EA11CB11CC114D104E10432
:10070000F10419F7DDCFFF90EF90DF90CF90BF900D
:10071000AF909F908F9008952FB7F89460910C033D
:1007200070910D0380910E0390910F032FBF0895D8
:100730001F920F920FB60F9211242F933F938F9316
:100740009F93AF93BF9380910C0390910D03A09161
:100750000E03B0910F0330910B0323E0230F2D37CD
:1007600020F40196A11DB11D05C026E8230F0296B5
:10077000A11DB11D20930B0380930C0390930D03D7
:10078000A0930E03B0930F03809110039091110377
:10079000A0911203B09113030196A11DB11D809386
:1007A000100390931103A0931203B0931303BF910E
:1007B000AF919F918F913F912F910F900FBE0F900E
:1007C0001F901895CF92DF92EF92FF92CF93C82F90
:1007D000803128F460E387E893E00E94090BCC2E77
:1007E000D12CE12CF12C20E1B701A60187E893E0A0
:1007F0000E943C0B20E1B701A60187E893E0CF916E
:10080000FF90EF90DF90CF900C943C0B0F931F93D1
:10081000CF93DF93162F082FEC018C2F801B8117AD
:1008200068F489910E94E2038C2F801B8117A8F73E
:1008300060E287E893E00E94090BEFCFDF91CF9150
:100840001F910F910895682F84E294E00C94300278
:10085000EF92FF920F931F93CF93DF9300D0CDB70A
:10086000DEB77C01162F683020F0185095E103E1C7
:1008700002C094E102E1F701808180624A8399839A
:100880000E9459089981892F0E9423040E94FC0725
:10089000F7019081892F806261E070E090E00E9412
:1008A000E00884E294E00E94E4014A8121E030E023
:1008B00001C0220F1A95EAF7413019F4122F182BB4
:1008C00003C02095122F1823F701808180620E94B7
:1008D0005908802F0E942304812F0E9423040F9027
:1008E0000F90DF91CF911F910F91FF90EF900C949B
:1008F000FC07EF92FF920F931F93CF93DF931F920A
:10090000CDB7DEB77C01162F683018F0185001E023
:1009100001C000E0F7018081806249830E9459088C
:10092000802F0E9423040E94FC07F70180818062CF
:1009300061E070E090E00E94E00884E294E00E94B0
:10094000E401498121E030E001C0220F1A95EAF765
:10095000411103C0122F182B03C02095122F18230A
:10096000F701808180620E945908802F0E94230431
:10097000812F0E9423040F90DF91CF911F910F913F
:10098000FF90EF900C94FC07603110F40C94790404
:100990000895CF93DF9300D0CDB7DEB7FC018081FF
:1009A000806269837A830E94590882E10E9423044D
:1009B0006981862F0E9423047A81872F0E94230455
:1009C0000F900F90DF91CF910C94FC07FC01962FB4
:1009D000828D8F3F31F0603140F4CF014B960C9403
:1009E0002804642F892F0C94E6020895CF93DF9397
:1009F000EC0140E06E810E94E60441E06E81CE0190
:100A00000E94E60440E06E81CE010E94E6048BE87D
:100A100091E00197F1F7DF91CF9108958F929F9226
:100A2000AF92BF92CF92DF92EF92FF920F931F93FC
:100A3000CF93DF93EC018A8D8E01095F1F4FC62E85
:100A4000D12C8F3F09F483C07E018BE1E80EF11CAD
:100A50008B8D80620E94590882E10E9423040E94CB
:100A6000FC078B8D806262E070E090E00E94E008FD
:100A700084E294E00E94E401B82E84E294E00E94B3
:100A8000E401982F88279C012B29F801A0E0B0E011
:100A900061E070E0B19001E010E0CB010B2C02C0EE
:100AA000880F991F0A94E2F780959095282339239F
:100AB000A6010A2E02C0559547950A94E2F74170A7
:100AC000552702C0440F551FBA94E2F7242B352B4B
:100AD0001196A430B105F1F668010E8002C0CC0C6D
:100AE000DD1C0A94E2F7C094D094C222D322B6014E
:100AF000C7010E94C904B8010E8002C0660F771FAB
:100B00000A94E2F7C62AD72AB601C7010E94C9048F
:100B10000E8002C0000F111F0A94E2F70095109595
:100B2000B60160237123C7010E94C9048BE891E0DC
:100B30000197F1F7DF91CF911F910F91FF90EF9007
:100B4000DF90CF90BF90AF909F908F900895E12C51
:100B5000F12C4E01EBE18E0E911C5801F8018081C1
:100B60009A8D9F3F31F041E0682FC4010E94C40478
:100B700003C061E00E9416030F5F1F4FA6010E2CF9
:100B800002C0559547950A94E2F74170F5016081DE
:100B9000CE010E94E604FFEFEF1AFF0A84E0E81698
:100BA000F104D9F6CE01DF91CF911F910F91FF9003
:100BB000EF90DF90CF90BF90AF909F908F900C946C
:100BC000F6048F929F92AF92BF92CF92DF92EF92F4
:100BD000FF920F931F93CF93DF93EC01F62E6C815E
:100BE0000E94E6046D816F3F21F040E0CE010E943B
:100BF000E6048C890F2D10E084FF3FC06E0187E072
:100C0000C80ED11CE12CF12C4E01EBE18E0E911C93
:100C10005601F60180819A8D9F3F31F041E0682FA7
:100C2000C4010E94C40403C061E00E941603FFEFE8
:100C3000CF1ADF0AA8010E2C02C0559547950A94D9
:100C4000E2F74170F5016081CE010E94E604FFEFFA
:100C5000EF1AFF0A88E0E816F104D1F6CE01DF9121
:100C6000CF911F910F91FF90EF90DF90CF90BF90A9
:100C7000AF909F908F900C94F604B80184E0759526
:100C800067958A95E1F7CE010E940E056F2DCE0182
:100C9000DF91CF911F910F91FF90EF90DF90CF9058
:100CA000BF90AF909F908F900C940E0541E00E94F2
:100CB000E10581E090E008951F920F920FB60F9228
:100CC00011242F933F934F935F936F937F938F9351
:100CD0009F93AF93BF93EF93FF938091B900887F69
:100CE000803609F49CC068F5883209F45BC090F442
:100CF000803109F454C038F4882309F4F6C08830F0
:100D000009F44DC0F6C0883109F44CC0803209F4B2
:100D10005DC0EFC0803409F468C048F4803309F442
:100D200055C0883309F0E5C080936103D8C0803591
:100D300009F44FC0883509F45DC0883409F0D9C082
:100D4000D6C0883909F4C7C0A8F4883709F467C049
:100D500038F4883609F463C0803709F460C0C9C02C
:100D6000883809F4B8C0803909F45FC0803809F0C8
:100D7000C0C05BC0803B09F486C038F4803A09F4F7
:100D800066C0883A09F47FC0B4C0803C09F4A7C0AB
:100D9000883C09F4A4C0883B09F48AC0AAC08091A9
:100DA0003E0310C09091600380915F03981770F527
:100DB000E091600381E08E0F80936003F0E0E15CDE
:100DC000FC4F80818093BB0085EC86C080936103DB
:100DD0008EC0E091600381E08E0F8093600380916C
:100DE000BB00F0E0E15CFC4F808390916003809158
:100DF0005F036EC0E091600381E08E0F809360031B
:100E00008091BB00F0E0E15CFC4F80838091620345
:100E100081116DC081E080933D0384EA61C083E06D
:100E20008093630310920A03CFCF80910A0380322C
:100E300008F051C0E0910A0381E08E0F80930A030D
:100E40008091BB00F0E0E651FD4F8083BDCF85EC83
:100E50008093BC001092630380910A03803230F4C7
:100E6000E0910A03F0E0E651FD4F108260910A0321
:100E700070E0E091E802F091E9028AEE92E00995D3
:100E800010920A0336C084E0809363031092E70255
:100E90001092E602E091E402F091E502099580915A
:100EA000E602811105C081E08093E6021092C4023F
:100EB000E091E70281E08E0F8093E702F0E0EC53CF
:100EC000FD4F80818093BB009091E7028091E60204
:100ED000981708F479CF85E88093BC000AC085ECA8
:100EE0008093BC001092630304C0109261030E94BF
:100EF000A201FF91EF91BF91AF919F918F917F914F
:100F00006F915F914F913F912F910F900FBE0F9076
:100F10001F9018958093B40283E08093360485E88F
:100F20008093370481E0809338048FEF80933904F5
:100F30000E9463080E943E098823E1F382E18093C6
:100F4000360489E88093370481E0809338044FE0C9
:100F500050E064EB72E089E394E00E94C4151092C3
:100F600048040E9463080E943E098823E1F3089523
:100F7000909163039111FCCF91E090936303909360
:100F800062032FEF2093610310926003260F2093DA
:100F90005F0390933E0390913E03880F892B8093CB
:100FA0003E0380913D03813061F410923D038091B6
:100FB0003E038093BB008091BC0083FDF8CF85EC9D
:100FC00001C085EE8093BC00809163038130E1F322
:100FD00080916003861710F460916003AFE3B3E083
:100FE0002DE133E0F9018E2F821B861718F48D91C5
:100FF0008193F9CF862F08952091860390919104D3
:10100000213208F04AC0809163038111FCCF32E0A5
:101010003093630331E0309362033FEF3093610319
:101020001092600320935F03A6E6B3E04FE353E022
:10103000FA013E2F341B321718F43D913193F9CF4A
:1010400010923E0320913E03990F922B90933E0302
:1010500090913D03913061F410923D0390913E03D5
:101060009093BB009091BC0093FDF8CF95EC01C02C
:1010700095EE9093BC00909163039230E1F39091D0
:1010800061039F3F79F080916103803241F080914C
:101090006103803331F084E005C081E003C082E069
:1010A00001C083E0109265031092860310926403DE
:1010B000089591E0909364038093910410926503E6
:1010C000109286030895CF92DF92EF92FF920F93D2
:1010D0001F93CF93DF93C0906D04D0906E04E09087
:1010E0006F04F09070040E948C036C157D058E05D2
:1010F0009F0588F30E948C03DC01CB014496A11D5F
:10110000B11D80936D0490936E04A0936F04B0930F
:101110007004D0913604DF5F8091370480936C04B3
:10112000809172040E94590806E314E0C0E0ED2E9D
:10113000F12CC801865394408E159F0564F4680114
:10114000F80161918F0184E294E00E943002F6017F
:101150008081C80FEECF6C2F84E294E00E943002B1
:101160000E94FC0780917104882309F16BEA72E008
:1011700087E893E00E94F00B6D2F86E394E00E94D5
:10118000060460E287E893E00E94090B8C2F0E941E
:10119000E2036EEA72E087E893E0DF91CF911F915E
:1011A0000F91FF90EF90DF90CF900C94100BDF9198
:1011B000CF911F910F91FF90EF90DF90CF90089506
:1011C000613208F060E20E94B80710921C0380931D
:1011D0001B03089540E0682F85E794E00C94E10537
:1011E00081E00E94EA088BE39FE10197F1F70895FF
:1011F000CF93DF93D82FC1E082FB442740F94C27DF
:1012000068E080E994E00E942804D1FB442740F97B
:101210004C2767E080E994E00E9428044D2F41703C
:101220004C2766E080E994E0DF91CF910C9428048C
:1012300010921C0310921B031092650310928603F8
:101240001092630381E08093620310923D0361E09A
:1012500082E10E94E60261E083E10E94E602E9EB9E
:10126000F0E080818E7F808380818D7F808388E421
:101270008093B80085E48093BC000895CF92DF92FC
:10128000EF92FF920F931F93CF93DF9380916C04A3
:10129000823881F0E0916C048E2F90E0FC01E258DE
:1012A000F109E531F10550F5EC5CFF4F0C94B213F8
:1012B000CBE027C0209174042F3F61F330E0F901A7
:1012C000E852FF4F8491F901EC53FF4FD491F9019B
:1012D000E055FF4FC491CC2309F4A6C081110E94B0
:1012E000BD02EC2FF0E0EE0FFF1FEA55FF4FA59176
:1012F000B491EC91ED2309F497C0CCCFC4E101C0C7
:10130000C4E0C0906D04D0906E04E0906F04F09043
:1013100070040E948C036C157D058E059F0588F373
:101320000E948C03DC01CB014496A11DB11D80936A
:101330006D0490936E04A0936F04B09370046C2FAF
:10134000809172040E94B807C82F10921C038093EA
:101350001B03882309F468C046E3E42E44E0F42E1E
:101360008701802F8E198C1740F484E294E00E944C
:10137000E401F80181938F01F4CF809171048823F7
:10138000A9F080913604882389F061EB72E087E848
:1013900093E00E94F00B6C2F86E394E00E94060419
:1013A0006EEA72E087E893E00E94100B40913604E9
:1013B000CFEFC40FC231C0F510925A0410925904F5
:1013C00010926904433018F49091380401C090E001
:1013D00090936A0480913704843828F48238B8F4F2
:1013E000803830F41FC08039B9F08639E9F01AC06E
:1013F000483008F0C7E0D0E0AE0168E374E08AE46A
:1014000094E00E94B415CA5CDB4F1C8A0BC091119A
:1014100009C0463058F406C010926A04809138041E
:1014200080936B0481E042C080E040C04250409312
:101430005904809138048093690450E069E374E0B2
:1014400082E594E00E94B4156091590422E534E0ED
:10145000D901CAE5D4E08A2F821B8617F8F4AD01C2
:101460008C9190E034E0959587953A95E1F78A3034
:10147000910514F4805D01C0895C888322961196E1
:10148000FA0180818F708A3010F4805D01C0895C20
:10149000AE0141505109FA018083DDCFE62FF0E023
:1014A000EE0FFF1FEA5CFB4F14A2BCCFDF91CF9180
:1014B0001F910F91FF90EF90DF90CF900895CF9301
:1014C000DF93CDB7DEB728970FB6F894DEBF0FBE17
:1014D000CDBF98E0E6E0F1E0DE01119601900D92BB
:1014E0009A95E1F790918D04961710F46FEF690FBC
:1014F000FE013196E60FF11DE60FF11D9081890F77
:10150000806828960FB6F894DEBF0FBECDBFDF917E
:10151000CF910C94EA08CF93DF93BC0187E893E066
:101520000E94100BEC016EEA72E087E893E00E94E3
:10153000100B8C0F9D1FDF91CF910895CF92DF92FA
:10154000EF92FF920F931F93CF93DF936C017A0179
:101550008B01C0E0D0E0CE15DF0589F0D8016D9198
:101560008D01D601ED91FC910190F081E02DC60135
:101570000995892B11F47E0102C02196ECCFC70199
:10158000DF91CF911F910F91FF90EF90DF90CF905F
:101590000895EF92FF920F931F93CF93DF93EC0187
:1015A0007B018A0188819981009729F02A813B81FA
:1015B00024173507F8F4B8016F5F7F4F0E94E514D8
:1015C000009759F0998388831B830A832C813D817E
:1015D000232B81F4FC0110820DC088819981009732
:1015E00011F00E944D14198218821D821C821B82E8
:1015F0001A8207C01D830C83B701888199810E94DC
:10160000BD15CE01DF91CF911F910F91FF90EF900B
:101610000895DC01ED91FC910190F081E02D099499
:101620006115710579F0FB0101900020E9F7319710
:10163000AF01461B570BDC01ED91FC910280F38159
:10164000E02D099480E090E00895CF93DF93FC01B2
:10165000448155816081718187E893E00E949E0AF0
:10166000EC016EEA72E087E893E00E94100B8C0FA9
:101670009D1FDF91CF9108954F925F926F927F925D
:10168000EF92FF920F931F93CF93DF93CDB7DEB707
:10169000A1970FB6F894DEBF0FBECDBF7C01FA0153
:1016A000CB0119A2223008F42AE08E010F5D1F4FF2
:1016B000422E512C612C712CBF01A30192010E947A
:1016C0009013F901CA01015011096A3014F4605DE8
:1016D00001C0695CD8016C93232B242B252B61F767
:1016E000B801C7010E94100BA1960FB6F894DEBF97
:1016F0000FBECDBFDF91CF911F910F91FF90EF9063
:101700007F906F905F904F900895CF92DF92EF920D
:10171000FF920F931F93CF93DF938C016B01770F91
:10172000EE08FF08F7FE12C06DE20E94090BEC0103
:1017300044275527BA014C195D096E097F092AE033
:10174000C8010E943C0BC80FD91F06C02AE0B70190
:10175000A6010E943C0BEC016EEA72E0C8010E94F7
:10176000100B8C0F9D1FDF91CF911F910F91FF9058
:10177000EF90DF90CF900895CF92DF92EF92FF929B
:10178000CF93DF936C01990FEE08FF08F7FE1BC0A3
:101790006DE285E794E00E94090BEC014427552790
:1017A000BA014C195D096E097F092AE085E794E0CA
:1017B0000E943C0B8C0F9D1FDF91CF91FF90EF900B
:1017C000DF90CF9008952AE0B701A60185E794E065
:1017D000DF91CF91FF90EF90DF90CF900C943C0B76
:1017E0000C94100B80913004909131040C944D14A2
:1017F000CF93DF93CDB7DEB727970FB6F894DEBF50
:101800000FBECDBF789484B5826084BD84B58160FD
:1018100084BD85B5826085BD85B5816085BD8091BB
:101820006E00816080936E00109281008091810033
:10183000826080938100809181008160809381002B
:10184000809180008160809380008091B1008460ED
:101850008093B1008091B00081608093B00080914E
:101860007A00846080937A0080917A00826080930D
:101870007A0080917A00816080937A0080917A006A
:10188000806880937A001092C1000E941809EAE5EE
:10189000F4E0309769F001900020E9F7AF014B5573
:1018A00054406AE574E080E394E00E94C90A14C0E1
:1018B0008091300490913104009711F00E944D14F2
:1018C00010923104109230041092350410923404B6
:1018D0001092330410923204E0919703F091980330
:1018E00082E08083E0919303F09194031082E09171
:1018F0009503F09196038FEC808310929F03E09103
:101900009B03F0919C0386E08083E0919903F09122
:101910009A03808180618083E0919903F0919A031A
:10192000808188608083E0919903F0919A0380819F
:1019300080688083E0919903F0919A0380818F7D84
:10194000808380918F048F3F39F58091890488606E
:101950008093890482E080938D0410928E048BE33F
:101960009DE00197F1F740E06091790485E794E00C
:101970000E94E60440E060917B0485E794E00E94C9
:10198000E60460917A046F3F09F4AAC040E085E75D
:1019900094E00E94E604A4C00E94180910929004EA
:1019A0000E9418098091900480620E94590880E08A
:1019B0000E9423048FEF0E9423040E94FC07809161
:1019C000900480620E94590881E00E9423048FEFF6
:1019D0000E9423040E94FC0741E068E080E994E053
:1019E0000E94790441E066E080E994E00E94790475
:1019F00041E067E080E994E00E94790487E00E947A
:101A0000F80860917A04662329F041E080E994E0C7
:101A10000E94C40441E06091790480E994E00E944E
:101A2000C40441E060917B0480E994E00E94C40416
:101A30000CE714E0F4E0FF2EF00EF80161918F0145
:101A400041E080E994E00E94C404F012F6CF04E87B
:101A500014E0E5E0EE2EE00E40E0F801608180E960
:101A600094E00E94C404F80121918F012031A8F56F
:101A7000283020F028507DE0F72E02C06CE0F62ED2
:101A80008091900480622F830E9459088F2D0E94BC
:101A900023040E94FC0780919004806261E070E062
:101AA00090E00E94E00884E294E00E94E401D82ED5
:101AB0008091900480620E9459088F2D0E94230417
:101AC00041E050E02F81CA0101C0880F2A95EAF752
:101AD0008D290E9423040E94FC07E012BDCF35CF60
:101AE0008091890484FD21C063E085E794E00E9431
:101AF0000E050BE416E4C8010197F1F763E085E7F2
:101B000094E00E940E05C8010197F1F763E085E7B4
:101B100094E00E940E0583E592E00197F1F762E000
:101B200085E794E00E940E0515C080620E94EA08D5
:101B30008BE496E40197F1F78091890480620E941A
:101B4000EA0883E592E00197F1F7809189048062C9
:101B50000E94EA088091890480620E94EA0884E079
:101B600080938A048CE00E94EA080E94F00882E0D8
:101B700080938B0486E00E94EA08809174048F3F72
:101B800019F060E00E941603809173048F3FA1F06A
:101B900061E00E94160361E0809173040E94E602F6
:101BA0006AE070E080E090E00E94520360E0809183
:101BB00073040E94E60208C081E08093360480E846
:101BC000809337040E94630868EC70E080E090E046
:101BD0000E94520311E010936B0482E0809336045C
:101BE00080E980933704109338040E9463081093AF
:101BF000360483E9809337040E94630883E0D82E7B
:101C000095E8C92E77247A9422E0622E36E8532E86
:101C10004AE5E42E44E0F42EAA24A394B12C6EE30A
:101C200071E087E893E00E94F00B609119037091D6
:101C30001A0387E893E00E94850B81E080933604C5
:101C400082E8809337040E9463080E943E0988233B
:101C5000E1F311E0D0923604C092370410933804B7
:101C6000709239040E9463080E943E098823E1F3C0
:101C70006092360450923704109338040E9463082F
:101C80000E943E098823E1F3809139049091380441
:101C9000977F9634F9F290E090931A03809319039A
:101CA0001A8219821C821B821E821D82E114F10499
:101CB00069F0F70101900020E9F7AF014B5554405E
:101CC0006AE574E0CE0101960E94C90ACE01019630
:101CD0000E94250B83E591E00E948B0AB0921803C5
:101CE000A092170386E00E94F80860E080E00E945E
:101CF0005F0A65E671E085E794E00E94F00B61E021
:101D000085E00E945F0A6091190370911A0385E7CC
:101D100094E00E94850B68EE73E080E090E00E9402
:101D200052030E94F00860E080E00E945F0A86E0B3
:101D30000E94F80866E771E085E794E00E94F00BE6
:101D400061E080E00E945F0A60E871E085E794E06E
:101D50000E94F00B64EF71E080E090E00E9452037B
:101D600061E08AE00E945F0A6AE871E085E794E03A
:101D70000E94F00B64EF71E080E090E00E9452035B
:101D800061E08BE00E945F0A6AE871E085E794E019
:101D90000E94F00B64EF71E080E090E00E9452033B
:101DA00061E08CE00E945F0A6AE871E085E794E0F8
:101DB0000E94F00B64EF71E080E090E00E9452031B
:101DC00061E08DE00E945F0A6AE871E085E794E0D7
:101DD0000E94F00B64EF71E080E090E00E945203FB
:101DE00061E08EE00E945F0A6AE871E085E794E0B6
:101DF0000E94F00B64EF71E080E090E00E945203DB
:101E000061E08FE00E945F0A6AE871E085E794E094
:101E10000E94F00B68EE73E080E090E00E945203B5
:101E20000E94F00886E00E94F808CE0101960E9408
:101E3000250B6CE871E085E794E00E94F00B60E40C
:101E400071E080E090E00E94520361E080E00E9437
:101E50005F0A6AE871E085E794E00E94F00B6CE2AB
:101E600071E080E090E00E94520361E081E00E9416
:101E70005F0A6AE871E085E794E00E94F00B68E190
:101E800071E080E090E00E94520361E082E00E94F5
:101E90005F0A6AE871E085E794E00E94F00B64E075
:101EA00071E080E090E00E94520361E083E00E94D4
:101EB0005F0A6AE871E085E794E00E94F00B60EF4A
:101EC00070E080E090E00E94520361E084E00E94B4
:101ED0005F0A6AE871E085E794E00E94F00B6CED20
:101EE00070E080E090E00E94520361E085E00E9493
:101EF0005F0A6AE871E085E794E00E94F00B68EC05
:101F000070E080E090E00E94520361E086E00E9471
:101F10005F0A6AE871E085E794E00E94F00B64EBE9
:101F200070E080E090E00E94520361E087E00E9450
:101F30005F0A6AE871E085E794E00E94F00B60EACE
:101F400070E080E090E00E94520361E088E00E942F
:101F50005F0A6AE871E085E794E00E94F00B6CE8A4
:101F600070E080E090E00E94520361E089E00E940E
:101F70005F0A6AE871E085E794E00E94F00B68E789
:101F800070E080E090E00E94520361E08AE00E94ED
:101F90005F0A6AE871E085E794E00E94F00B64E66E
:101FA00070E080E090E00E94520361E08BE00E94CC
:101FB0005F0A6AE871E085E794E00E94F00B60E553
:101FC00070E080E090E00E94520361E08CE00E94AB
:101FD0005F0A6AE871E085E794E00E94F00B6CE329
:101FE00070E080E090E00E94520361E08DE00E948A
:101FF0005F0A6AE871E085E794E00E94F00B68E20E
:1020000070E080E090E00E94520361E08EE00E9468
:102010005F0A6AE871E085E794E00E94F00B64E1F2
:1020200070E080E090E00E94520361E08FE00E9447
:102030005F0A6AE871E085E794E00E94F00B64E1D2
:1020400070E080E090E00E9452030E94F0088DE969
:1020500091E00E948B0A68EB7BE080E090E00E94B8
:10206000520387E893E00E94D3004C0187E893E095
:102070000E94B1008C012091190330911A03280F9E
:10208000391F21503109309316032093150381E045
:10209000892809F480E08093140384E00E94F80802
:1020A00060E080E00E945F0A68EC71E085E794E000
:1020B0000E94F00B61E085E00E945F0A6AED71E02A
:1020C00085E794E00E94F00BB80185E794E00E9458
:1020D000850B80911403882309F410C180911503A6
:1020E0009091160304970CF442C00E94F00860E03F
:1020F00080E00E945F0A82E00E94F8080E94F008D7
:102100006CED71E085E794E00E94F00B61E087E000
:102110000E945F0A80911503909116030E94BC0BE8
:102120008EEE91E00E948B0A68EB7BE080E090E00D
:102130000E94520361E072E087E893E00E94F00B96
:10214000B80187E893E00E94850B81E08093360414
:1021500082E8809337040E9463080E943E09882326
:10216000E1F380911503909116030E948A070E9463
:10217000F00860E080E00E945F0A83E00E94F808B7
:102180006CED71E085E794E00E94F00B61E087E080
:102190000E945F0A80911503909116030E94BC0B68
:1021A0006CED75E080E090E00E9452030E94F00820
:1021B00060E084E00E945F0A6AE072E085E794E0F4
:1021C0000E94F00B61E084E00E945F0A65E172E02A
:1021D00085E794E00E94F00B68EE73E080E090E009
:1021E0000E9452030E94F00860E085E00E945F0AAE
:1021F0006FE172E085E794E00E94F00B61E084E01B
:102200000E945F0A65E272E085E794E00E94F00BAD
:1022100060ED77E080E090E00E9452038EEE91E066
:102220000E948B0A68EB7BE080E090E00E94520302
:1022300061E088E00E945F0A6091150370911603C7
:1022400085E794E00E94850B61E072E087E893E007
:102250000E94F00BB80187E893E00E94850B81E0B3
:102260008093360482E8809337040E9463080E94BA
:102270003E098823E1F380911503909116030E9493
:102280008A078091150390911603892BB9F50E9456
:10229000F00860E080E00E945F0A81E00E94F80898
:1022A0006DE272E085E794E00E94F00B61E080E06F
:1022B0000E945F0A6EE372E085E794E00E94F00BF3
:1022C00060E777E180E090E00E9452030E94F0080E
:1022D00089E492E00E948B0A81E08093360482E8D0
:1022E000809337040E9463080E943E098823E1F32B
:1022F00080911503909116030E948A078091140320
:1023000081114CC10E94F00881E00E94F80860E051
:1023100084E00E945F0A67E572E085E794E00E942E
:10232000F00B61E084E00E945F0A6EE572E085E7F1
:1023300094E00E94F00B68E57BE180E090E00E9471
:1023400052030E94F00887E00E94F80860E080E0F5
:102350000E945F0A66E672E085E794E00E94F00B57
:1023600082E792E00E948B0A60E471E080E090E0F6
:102370000E94520361E080E00E945F0A6AE871E017
:1023800085E794E00E94F00B6CE271E080E090E061
:102390000E94520361E081E00E945F0A6AE871E0F6
:1023A00085E794E00E94F00B68E171E080E090E046
:1023B0000E94520361E082E00E945F0A6AE871E0D5
:1023C00085E794E00E94F00B64E071E080E090E02B
:1023D0000E94520361E083E00E945F0A6AE871E0B4
:1023E00085E794E00E94F00B60EF70E080E090E001
:1023F0000E94520361E084E00E945F0A6AE871E093
:1024000085E794E00E94F00B6CED70E080E090E0D6
:102410000E94520361E085E00E945F0A6AE871E071
:1024200085E794E00E94F00B68EC70E080E090E0BB
:102430000E94520361E086E00E945F0A6AE871E050
:1024400085E794E00E94F00B64EB70E080E090E0A0
:102450000E94520361E087E00E945F0A6AE871E02F
:1024600085E794E00E94F00B60EA70E080E090E085
:102470000E94520361E088E00E945F0A6AE871E00E
:1024800085E794E00E94F00B6CE870E080E090E05B
:102490000E94520361E089E00E945F0A6AE871E0ED
:1024A00085E794E00E94F00B68E770E080E090E040
:1024B0000E94520361E08AE00E945F0A6AE871E0CC
:1024C00085E794E00E94F00B64E670E080E090E025
:1024D0000E94520361E08BE00E945F0A6AE871E0AB
:1024E00085E794E00E94F00B60E570E080E090E00A
:1024F0000E94520361E08CE00E945F0A6AE871E08A
:1025000085E794E00E94F00B6CE370E080E090E0DF
:102510000E94520361E08DE00E945F0A6AE871E068
:1025200085E794E00E94F00B68E270E080E090E0C4
:102530000E94520361E08EE00E945F0A6AE871E047
:1025400085E794E00E94F00B64E170E080E090E0A9
:102550000E94520361E08FE00E945F0A6AE871E026
:1025600085E794E00E94F00B64E170E080E090E089
:102570000E9452030E94F00860E084E00E945F0A1B
:1025800063EA72E085E794E00E94F00B68E873E18B
:1025900080E090E00E9452030E94F008109218031D
:1025A0001092170389819A810E944D140E94730131
:1025B00036CBCF93DF93E7E8F3E01382128288EE05
:1025C00093E0A0E0B0E084839583A683B78322E103
:1025D00031E03183208325EC30E03587248724ECFB
:1025E00030E03787268720EC30E0318B208B21ECE0
:1025F00030E0338B228B22EC30E0358B248B26ECC1
:1026000030E0378B268B118E128E138E148EE4E2FF
:10261000F4E01382128284839583A683B78384E2D5
:1026200091E091838083E5E7F4E01382128286E3F0
:1026300091E091838083128E148A8FE084838EE0F0
:1026400085838DE086838CE087838BE080878AE0BA
:10265000818789E08287178681E0808B82E0818B89
:1026600093E0928B84E0838BC6E3D4E022E42CAF2A
:1026700090937304809374041BAE0E948C03DC015E
:10268000CB010A96A11DB11D8FAB98AFA9AFBAAF10
:10269000E0E3F4E011821082138212821582148228
:1026A00040E050E060EB72E0CF01DF91CF910C94FD
:1026B000C90A2F923F924F925F926F927F928F92B0
:1026C0009F92AF92BF92CF92DF92EF92FF920F93C1
:1026D0001F93CF93DF93CDB7DEB7CA1BDB0B0FB6CB
:1026E000F894DEBF0FBECDBF09942A883988488888
:1026F0005F846E847D848C849B84AA84B984C8841E
:10270000DF80EE80FD800C811B81AA81B981CE0F14
:10271000D11D0FB6F894DEBF0FBECDBFED010895F9
:10272000A1E21A2EAA1BBB1BFD010DC0AA1FBB1FD5
:10273000EE1FFF1FA217B307E407F50720F0A21B47
:10274000B30BE40BF50B661F771F881F991F1A94B4
:1027500069F760957095809590959B01AC01BD01DE
:10276000CF010895EE0FFF1F0590F491E02D09941D
:10277000CF93DF938230910510F482E090E0E091F6
:102780009404F091950420E030E0C0E0D0E0309770
:1027900011F14081518148175907C0F04817590776
:1027A00061F482819381209719F09B838A832BC0E7
:1027B000909395048093940426C02115310519F057
:1027C0004217530718F49A01BE01DF01EF0102809E
:1027D000F381E02DDCCF2115310509F1281B390BE0
:1027E0002430310590F412968D919C9113976115C8
:1027F000710521F0FB019383828304C090939504BB
:1028000080939404FD01329644C0FD01E20FF31F52
:1028100081939193225031092D933C933AC020919A
:10282000920430919304232B41F4209102013091C2
:10283000030130939304209392042091000130917E
:1028400001012115310541F42DB73EB74091040136
:1028500050910501241B350BE0919204F0919304F3
:10286000E217F307A0F42E1B3F0B2817390778F067
:10287000AC014E5F5F4F2417350748F04E0F5F1FC6
:1028800050939304409392048193919302C0E0E0AB
:10289000F0E0CF01DF91CF9108950F931F93CF9375
:1028A000DF93009709F48CC0FC01329713821282E7
:1028B00000919404109195040115110581F4208173
:1028C0003181820F931F2091920430919304281735
:1028D000390779F5F0939304E093920471C0D8011D
:1028E00040E050E0AE17BF0750F412962D913C9196
:1028F0001397AD012115310509F1D901F3CF9D01E0
:10290000DA013383228360817181860F971F8217DA
:10291000930769F4EC0128813981260F371F2E5F58
:102920003F4F318320838A819B8193838283452B10
:1029300029F4F0939504E093940442C01396FC9319
:10294000EE931297ED01499159919E01240F351F85
:10295000E217F30771F480819181840F951F02962D
:1029600011969C938E938281938113969C938E9360
:102970001297E0E0F0E0D80112968D919C911397A8
:10298000009719F0F8018C01F6CF8D919C91980178
:102990002E5F3F4F820F931F20919204309193043A
:1029A0002817390769F4309729F41092950410928A
:1029B000940402C013821282109393040093920431
:1029C000DF91CF911F910F910895A0E0B0E0EBEE61
:1029D000F4E10C945D13EC01009721F4CB010E940B
:1029E000B813B8C0FC01E60FF71F9C012250310953
:1029F000E217F30708F4ACC0D9010D911C911197AF
:102A000006171707B0F00530110508F49FC0C8017C
:102A100004978617970708F499C002501109061BFE
:102A2000170B019311936D937C93CF010E944D146A
:102A30008DC05B01A01AB10A4C01800E911EA091BD
:102A40009404B091950440E050E0E12CF12C1097F3
:102A500009F44AC0A815B905D1F56D907C9011977D
:102A6000630182E0C80ED11CCA14DB0480F1A3010B
:102A70004A195B096A0182E0C80ED11C1296BC900B
:102A800012971396AC91B5E0CB16D10440F0B28208
:102A9000A38351834083D9016D937C930AC00E5F59
:102AA0001F4FC301800F911FF90191838083EB2D8C
:102AB000FA2FE114F10431F0D7011396FC93EE9351
:102AC000129744C0F0939504E09394043FC08D9115
:102AD0009C9111974817590708F4AC017D01129693
:102AE0000D90BC91A02DB3CF80919204909193044E
:102AF00088159905E1F446175707C8F4809100013D
:102B000090910101009741F48DB79EB74091040167
:102B100050910501841B950BE817F907C8F4F09351
:102B20009304E0939204F901718360830FC0CB0199
:102B30000E94B8137C01009759F0A801BE010E94C1
:102B4000B415CE010E944D14C70104C0CE0102C0CD
:102B500080E090E0CDB7DEB7EEE00C94791381E031
:102B600090E0F8940C94D315FB01DC0102C00190B5
:102B70000D9241505040D8F70895FB01DC010190BF
:102B80000D920020E1F70895FB01DC014150504017
:102B900048F001900D920020C9F701C01D924150EC
:102BA0005040E0F7089510E0C7E7D0E004C0FE0110
:102BB0000E94B2132196C837D107C9F7F894FFCF06
:102BC0000000960480000000400014005400000043
:102BD00000000A019E0AA2005101D300B100C50005
:102BE00000000000300200026002D401F801E4019C
:102BF000D5010000000056069E0A60025F02204ECA
:102C000062726544655469636B6574734C757320B7
:102C10003D20005061732064652064C3A97465631E
:102C200074696F6E005469636B65747320416374DB
:102C300075656C733A004D657263692064652000A8
:102C400070617469656E746572002E0044656D6113
:102C50006E646520656E20636F75727300566572D1
:102C6000696669636174696F6E206465206C6120B8
:102C70006261736520646520646F6E6EC3A9652010
:102C80002E2E2E2E2E2E2000416A6F757420646524
:102C9000205469636B6574733A002B005469636B4D
:102CA0006574732072657374616E74733A00696E33
:102CB000666F726D6174696F6E207265C3A775650A
:102CC000005469636B6574733D0050656E73657283
:102CD00020C3A02000526563686172676572007648
:102CE0006F747265005469636B65747300566F7519
:102CF00073206E276176657A20706C757300646549
:102D0000207469636B65747300506173206465207F
:102D10007265746F75720045525245555200535991
:102D20005354454D450052656C616E63656D656E2B
:102D30007400446F6E6EC3A96573206E6F6E20724F
:102D400065C3A7756573206F752070617320646516
:102D50002072C3A9706F6E736520656E766F79C33C
:102D6000A965005445524D494E45003E20000D0ACC
:042D7000003C200003
:107E0000112484B714BE81FFF0D085E080938100F7
:107E100082E08093C00088E18093C10086E0809377
:107E2000C20080E18093C4008EE0C9D0259A86E02C
:107E300020E33CEF91E0309385002093840096BBD3
:107E4000B09BFECF1D9AA8958150A9F7CC24DD24C4
:107E500088248394B5E0AB2EA1E19A2EF3E0BF2EE7
:107E6000A2D0813461F49FD0082FAFD0023811F036
:107E7000013811F484E001C083E08DD089C08234E0
:107E800011F484E103C0853419F485E0A6D080C0E4
:107E9000853579F488D0E82EFF2485D0082F10E0AE
:107EA000102F00270E291F29000F111F8ED06801E7
:107EB0006FC0863521F484E090D080E0DECF843638
:107EC00009F040C070D06FD0082F6DD080E0C81688
:107ED00080E7D80618F4F601B7BEE895C0E0D1E017
:107EE00062D089930C17E1F7F0E0CF16F0E7DF06D8
:107EF00018F0F601B7BEE89568D007B600FCFDCFD4
:107F0000A601A0E0B1E02C9130E011968C91119780
:107F100090E0982F8827822B932B1296FA010C0160
:107F200087BEE89511244E5F5F4FF1E0A038BF0790
:107F300051F7F601A7BEE89507B600FCFDCF97BE46
:107F4000E89526C08437B1F42ED02DD0F82E2BD052
:107F50003CD0F601EF2C8F010F5F1F4F84911BD097
:107F6000EA94F801C1F70894C11CD11CFA94CF0C13
:107F7000D11C0EC0853739F428D08EE10CD085E9AC
:107F80000AD08FE07ACF813511F488E018D01DD067
:107F900080E101D065CF982F8091C00085FFFCCF94
:107FA0009093C60008958091C00087FFFCCF809118
:107FB000C00084FD01C0A8958091C6000895E0E648
:107FC000F0E098E1908380830895EDDF803219F02E
:107FD00088E0F5DFFFCF84E1DECF1F93182FE3DFCA
:107FE0001150E9F7F2DF1F91089580E0E8DFEE27F6
:047FF000FF270994CA
:027FFE00040479
:0400000300007E007B
:00000001FF